:100000006F00D03800000000320100003401000011
:1000100000000000000000000000000000000000E0
:1000200000000000000000000000000000000000D0
:1000300044010000000000008A0B000000000000E6
:100040008A0B00008A0B00008A0B00008A0B00005C
:100050008A0B00008A0B00008A0B00008A0B00004C
:100060008A0B00008A0B00008A0B00008A0B00003C
:100070008A0B00008A0B00008A0B00008A0B00002C
:100080008A0B00008A0B00008A0B00008A0B00001C
:100090008A0B00008A0B00008A0B000000000000A1
:1000A000511126C022C206C4828282441244A24058
:1000B00031018280634E050263C305042E86AA8542
:1000C0007D5515C285466378B6006356C0000606A6
:1000D0008606E36CB6FE014563E4C500918D558D3F
:1000E00085820582F5FA82808682C93F2E858282CA
:1000F0003305A04063D70500B305B040C1B7B305D1
:10010000B0408682653F3305A0408282868263C705
:100110000500634905005D372E858282B305B04036
:10012000E35B05FE3305A040513F3305B0408282BA
:10013000000001A0B707EFBE37E700E0938707088C
:100140003CC701A0B70700209387070498436111BB
:1001500022C226C0050798C337F400E0232204001A
:10016000B707002003A5870104488965938505F436
:10017000B137269508C8124482442101730020300B
:10018000EFF21FF237F400E02320040023240400E0
:10019000B707002003A587018965938505F4393FDA
:1001A00008C88D471CC00567B7E700E023A0E7102B
:1001B000EDBDEFF2FFEE1165111185451305050246
:1001C00002C002C202C402C602C802CA02CCEF00C8
:1001D000D055930700027C80371401408D473EC202
:1001E0008A85E147130504403EC4EF00D0259307FC
:1001F00000047C808A859147130504403EC4EF00CB
:100200009024F16737440140938707203EC66C0075
:10021000B7070C00130504803ECA02C8231C010066
:10022000EF007054854513050480EF009060710164
:10023000ADBDEFF2FFE611118545454502C002C292
:1002400002C402C602C802CA02CCEF00104E8545A5
:1002500037052000EF00504F99477C80F1473EC49E
:100260008A858D47371501403EC2EF00D01DE167FA
:100270009387076A3EC6B707FFBF375400403EC8A2
:10028000B70700043ECA6C00916713050440FC8464
:10029000EF003023854513050440EF00B0307101B5
:1002A00029B59357450013972700BA9786073D89CC
:1002B0003E951375F50F8280EFF29FDE37540040B4
:1002C000711193040440B70502002685EF00303712
:1002D0007DF913050440854537040300EF00102E17
:1002E0000504B7540040A28513850440EF00D033C5
:1002F0006DD901469305000D1385044037040700AE
:10030000EF00703113042408B7540040A285138510
:100310000440EF0070316DD98145138504403704E6
:100320000700EF00902E13044408B7540040A28544
:1003300013850440EF00502F6DD985451385044087
:1003400037040300EF0090270504B7540040A2854E
:1003500013850440EF00502D6DD905469305000D1F
:100360001385044037040300EF00F02A09043755D1
:100370000040A28513050540EF00102B6DD9B7078B
:1003800000209387470481443EC0370703001307CA
:10039000070437540040BA8513050440EF00D02805
:1003A000B7070300138707046DD513050440EF005A
:1003B0001026C53D82473387970008A385041D4753
:1003C000639EE400130504408545EF00D020854579
:1003D00013050440EF00D0211101C1B91947E3967C
:1003E000E4FA814513050440EF00902079BF93079C
:1003F00085FF93F7F70F13077003636BF70CEFF2AA
:100400003FCAB7570040AE842A84138707403A8515
:10041000B7050200EF00B022B7570040138707402E
:100420007DF585453A85EF007019B707030085070C
:1004300037570040BE8513050740EF00F01EB70791
:10044000030037570040850765D501469305000D29
:1004500013050740EF00301CB707070093872708F4
:1004600037570040BE8513050740EF00F01BB70764
:10047000070037570040938727087DD1A2851305D1
:10048000074037040700EF00501813044408B7571B
:10049000004013850740A285EF001019B7570040B0
:1004A0007DD5A6851385074037040700EF00F015BA
:1004B00013044408B7540040A28513850440EF009C
:1004C000B0166DD9854513850440EF00D010F1BEFC
:1004D0008280EFF2FFBC930785FF93F7F70F1307B6
:1004E00070038144636BF710B75400402A849387EC
:1004F00004403E85B7050200EF007014B757004076
:10050000938707407DF5138504408545B7040300B4
:10051000EF00D00A8504B757004013850740A68531
:10052000EF009010B75700407DD501469305000DB0
:1005300013850740B7040700EF00F00D93842408EB
:10054000B757004013850740A685EF00F00DB75759
:1005500000407DD5A2851385074037040700EF00D2
:10056000D00A13044408B7540040A2851385044000
:10057000EF00900B6DD985451385044037040300C7
:10058000EF00D0030504B7540040A2851385044052
:10059000EF0090096DD905469305000D13850440C1
:1005A00037040300EF0030070904B7540040A28568
:1005B00013850440EF0050076DD913850440814531
:1005C000B7040300EF00D0029384040437540040C2
:1005D000A68513050440EF0030056DD913050440CE
:1005E000EF00F0028545AA8413050440EF00A07EC9
:1005F000854513050440EF00A07F26857DB4EFF20A
:100600003FAA61112AC0930780031304800363E4A7
:10061000B70013F4F50FB7540040138704403A8530
:10062000B7050200EF00B001B7570040138707403D
:100630007DF5854513850440EF004078B70703003A
:100640008507B7540040BE8513850440EF00C07D88
:10065000B7070300850775D501469305000D13857F
:100660000440EF00407BB707070093872708B75483
:100670000040BE8513850440EF00007BB7070700EC
:10068000938727086DD5A14513850440EF00E077D7
:10069000B707070093874708B7540040BE85138506
:1006A0000440EF006078B7070700938747086DD5CF
:1006B000854513850440EF006070B7070300850788
:1006C000B7540040BE8513850440EF00E075B707BE
:1006D0000300850775D51385044005469305000D75
:1006E000EF006073B707030093842700375500407D
:1006F000A68513050540EF0020736DD99307F4FF1D
:1007000081443EC263C08402375400401305044054
:100710008545EF00406C854513050440EF00406DB2
:10072000210161B292476399970037550040814596
:1007300013050540EF00C06B3707030013070704DC
:10074000B7560040BA8513850640EF00E06DB70745
:100750000300B7560040138707047DD11385064078
:10076000EF00E06A82473387970008A3850459BFEA
:10077000EFF21F9371112AC09307800313048003C3
:1007800063E4B70013F4F50FB75400401387044037
:100790003A85B70502006525B75700401387074023
:1007A00065F9854513850440112DB70703008507BA
:1007B000B7540040BE8513850440BD25B70703002C
:1007C00085077DD501469305000D13850440A125BD
:1007D000B707070093872708B7540040BE851385E5
:1007E00004409925B70707009387270875D5138517
:1007F0000440A145192DB7070700938447083755D2
:100800000040A68513050540052575D9814463CBB5
:100810008400375500408545130505406D2B1101B7
:100820006FF0BF8882473755004013050540338776
:1008300097000C23D92B37070700130747083755B4
:100840000040BA8513050540C523B7070700138785
:10085000470875D5850465BFEFF29F849945093F28
:100860006FF0BF84EFF2DF839945513B6FF0FF8358
:10087000EFF21F835D710545E52B5524EF00E07D08
:10088000716513050520EF009000B707002083A5D0
:1008900087013715000013050573EF00B062792E4C
:1008A000AA853715000013050574EF00B061EFF05D
:1008B0005F90EFF01F98EFF0BF8C214519390505C7
:1008C0001374F50FA28521451D3637150000A2854A
:1008D00013050575EF00105F3705002013050500AF
:1008E000A53F3715000013054577EF00D05F0808D6
:1008F00002C8231A0100BD37034741019307500A7C
:10090000631EF70CB08083452101371500001305E5
:100910004579EF00305B02C602C4B704002093871C
:10092000040422479C4313840404998F1307703EE8
:100930006372F7041C403EC4EFF01F983706002096
:10094000130646041C220C40371500003EC21C3220
:100950001305057E3EC03C22582254327022EF001F
:1009600070562145BD36AA853725000013058581BF
:10097000EF005055B24718401D8F89679387F77075
:10098000E3FFE7F81C40372500001305C5823EC68B
:10099000EF007055930580032808953101443C0809
:1009A000338787000C23B727000013858784EF0067
:1009B000705105041377740019E7372500001305FB
:1009C0004584EF00505213078003E31AE4FC3725F7
:1009D000000013050585EF00105191B73715000091
:1009E0001305C57BEF0030503DB7EFF26FEB3714C6
:1009F00002401C403707FFF8611193E717001CC045
:100A00005C404145F98F5CC01C403707F7FE7D17FD
:100A1000F98F1CC01C403707FCFF7D17F98F1CC0E5
:100A20005C4041777D17F98F5CC0B7079F001CC4FD
:100A300099211C4C3706020093E707021CCCB7171C
:100A4000014003A70740938607401377F7F023A0E0
:100A5000E74003A707401367070823A0E74089473B
:100A60009CCA02C002C21C4C37070140A16693E732
:100A700017001CCC5C43D58F5CC31C404167B71684
:100A80000240D98F1CC009679C42F18F3EC2824749
:100A900085073EC0924781E78247E397E7FEB71795
:100AA00002409C431397E7006359070685473EC2FF
:100AB000124785476310F706B72702409843C1766F
:100AC000FD16719B98C398431367170098C3B71717
:100AD0000240D843D8C3D843758FD8C3D843C16622
:100AE000558FD8C39843B7060001558F98C39843D4
:100AF00093166700E3DD06FED843B7160240719BEC
:100B0000D8C3D84313672700D8C32147DC42B18B31
:100B1000E39EE7FE21016FF04FD902C251BFEFF211
:100B20002FD8371702405C43370400209146B18B21
:100B3000130484016385D700A1466382D704B737C5
:100B40006E01938707601CC0B7160240DC42084064
:100B5000918313F7F700B707002093878700BA97B0
:100B60008C23DC4293F5F50F93F707083357B50054
:100B700081E7EFF0AFD42A8718C06FF00FD35C4342
:100B8000B777DC02938707C07DBF01A097010020E3
:100B9000938141CB138101FC1305000A97F5FF1FD8
:100BA0009385454617F6FF1F1306C64563FAC50031
:100BB0008322050023A0550011059105E3EAC5FE37
:100BC00017150000130545CB97F5FF1F9385854347
:100BD00017F6FF1F1306064763FAC50083220500B8
:100BE00023A0550011059105E3EAC5FE17F5FF1F87
:100BF00013054545938541816377B50023200500A2
:100C00001105E36DB5FEB722000093820288739050
:100C100002308D427390428097F2FFFF9382823EB2
:100C200093E2320073905230EFF03FDC9702000005
:100C3000938242C47390123473002030B7F7FF1FC1
:100C400003A5477C8280944593F7060193F2F60052
:100C500081C7DC41B3E2F20083D3050093F7F30FC1
:100C6000A5C303230500611122C226C081471304D6
:100C700080029304800405473316F70033F7C3005E
:100C80006312E602939527003D473317B7001347D9
:100C9000F7FF33736700B395B20033E36500639DDC
:100CA000860050C985072147E397E7FC12442320BB
:100CB0006500824421018280E39696FE10C9DDB76B
:100CC0008280EFF2EFBD111146212A8428002EC048
:100CD000652AC246C204C18093F404FCB7450F00E4
:100CE000938505243685C20436C2C180EFF00FBD5E
:100CF000458D420541814AA01E209246C207C1830C
:100D0000F99BC207C1831EA082479043E167938786
:100D1000076A9315160063E6C7043685EFF00FBA2D
:100D2000AA874205418191466373D5009147139587
:100D3000070141814AAC1E20024793E717001EA01D
:100D40001E2056233227C207C183D18E93F757BF87
:100D5000D58F1EA016275E27D58F1EA471016FF0B8
:100D6000CFB48247EA23B167FD176310F502B2954D
:100D70003685EFF0AFB4420541819317450199E301
:100D800013651500A1675D8D75B7B387C5008E0724
:100D9000B385C7003685EFF06FB242054181916798
:100DA0005D8DE1BF1E2189C593E717001EA18280DA
:100DB000C207C183F99BC207C183CDBF1E2189C56C
:100DC00093E707101EA18280C207C18393F7F7EF54
:100DD000C207C183C5BF1E2189C593E707201EA195
:100DE0008280C207C18393F7F7DFC207C183C5BF03
:100DF0001E2189C593E707401EA18280C207C183D7
:100E000093F7F7BFC207C183C5BF0EA982800A2925
:100E10001375F50F828093F7E50F19C293E715005C
:100E2000C207C1831EA982805E290A2D42055D8DFD
:100E30006D8D220521810D8D133515008280611184
:100E400002C002C293D7C5012AC23EC08247A20592
:100E5000A18199CB9247D1073EC292478843210195
:100E60006D8D3335A00082809247C181E107EDB7D7
:100E700023A6A1808280371702401C430E0593F7FA
:100E800077F05D8D08C38280EFF28FA137170240A3
:100E90005C4391462A84B18B6385D700A146638069
:100EA000D708B7376E01938707601CC0B71602409A
:100EB000DC42918313F7F700B707002093870703FD
:100EC000BA978C23DC42184093F5F50F93F7070887
:100ED0003355B70081E73A85EFF04F9E48C008C40C
:100EE00048C4B7170240DC438D46AD83FD8B13D752
:100EF00037008A07F18BD98F13F6370113F73700C4
:100F000063F4C600138747FFB70700209387C70124
:100F1000BA978C23EFF08F9A08C86FF00F995C4353
:100F2000B777DC02938707C049B799C537170240E6
:100F30001C4F5D8D08CF8280B7170240984F134534
:100F4000F5FF798D88CF828099C5371702405C4FB5
:100F50005D8D48CF8280B7170240D84F1345F5FF0B
:100F6000798DC8CF8280EFF2AF931629F577FD1700
:100F7000F58FF621DA252111D58F1EA95625FD778B
:100F80009387379FF58FD6212A842EC0D58F96253B
:100F9000D58FB625D58F5EA55E29C207C18393F78D
:100FA000F7CF5D8F5AA94800C535B74701409387F1
:100FB000078082456312F406C2475A24139517002E
:100FC0003E9542070E0541873E958C4163580704C4
:100FD0008605EFF0AF8E930540062AC0EFF00F8E26
:100FE000824793144500930540063E85EFF0CF8F6E
:100FF0005E24C207C18763D507020E05930540062C
:1010000013052503EFF08F8B1D89C98CC204C180A5
:1010100006A461016FF06F89B24745B78A0555BFD5
:1010200012059305400613052503EFF02F893D892E
:10103000E9BF91C55E250967D98F5EA582805A25D3
:10104000F977FD17F98FD5BF93F5F51F4EA1828073
:101050000A216D8D3335A0008280EFF26F84B707CF
:10106000002003A58701B7157A0093850520EFF0CE
:10107000EF841375F50F2389A18093175500898F8D
:101080008A073E950E052398A1806FF00F82EFF23C
:101090002F812A84116511118545130505027135CB
:1010A000930700027C80371501408D473EC28A8538
:1010B000E147130505403EC4793622C63744014056
:1010C000B70708006C00130504803ECA02C8231C41
:1010D0000100513D854513050480A13F71016FE07A
:1010E000DFFCEFE2FFFB7111AE840144635DC402DB
:1010F000B7470140138707803A859305000432C043
:10110000813FB747014013870780024675D5338773
:10111000840083050700138507800504C205C1818B
:1011200025370246E1B7328511016FE01FF8411102
:1011300006C62EC00DCD1841AA8705C358417D555E
:1011400011CB8546631BD70098472300070023A2D5
:1011500007000545B240410182809847824614A3AA
:101160009847050798C7D8437D17D8C3DDB705460C
:101170008A85853FF9BF011122CC2EC206CE26CA30
:101180002A84814793050002634506029245BE9575
:10119000838505008DE563D8C70263D4E702198E05
:1011A0001305000293F526002AC089C501E79305BF
:1011B00000032EC0858A814495EAB2840DA085077C
:1011C000F1B71D8EF1BF0146E1BF824522853AC8C5
:1011D00032C63EC4A93FA24732464247FD14E34609
:1011E00090FEB284635306008144058E63C7E70214
:1011F000A68792463387974036978305070095ED7B
:10120000B28463449004635306000146F240624492
:10121000D2443305F600056182801D8FBA8793059D
:101220000003228532C83EC63AC41137B24722476E
:101230004246FD17EDF7BA9465BF228532C63EC41B
:10124000FD35A247324685076DB78245228532C4F7
:101250003EC2F13DFD142246924765B7397106DE64
:1012600022DC26DA3EC232833A8689ED9246930723
:10127000000301476C08FC86FD3DF2506254D254D5
:1012800021618280AA843684AE8791CA29470144AD
:101290006317E30063D50500B307B04005448646F5
:1012A000A309010213073103938666FC36C49A85AD
:1012B0003E8532CA3AC81AC63EC0EFE0FFE2A546F4
:1012C000824732434247524663D4A600A24636952F
:1012D000130505039306F7FFA30FA7FE9A853E8526
:1012E00032CC3ACA1AC83EC636C0EFE03FDDB2473C
:1012F00042435247624663F9670401CC29CA9247C8
:10130000898BB1C79305D002268532C40D3522469C
:101310007D169247918B95C306479307100632C4FA
:10132000930500032685631EF70211359305800798
:101330002685F53B224609047916164792468245D2
:101340002685153D229515BFAA8702478DB782468F
:101350009307D0020144A38FF6FE9307E7FF3EC038
:101360004DBFF13393058005E1B70145828001450A
:101370008280130181FD22D026CE06D22AC4AE82FD
:10138000328402C681448385020089EDA24781C769
:1013900081453E85693B925002542685F2441301F3
:1013A00081028280930750026388F500224516C8A7
:1013B0008504B53BC24239A8838712001387120007
:1013C000639CB7002245930550023AC88D334247CB
:1013D0008504BA82850245BFD5DB9306B0026389D6
:1013E000D70463C8F600930630026386D7048147AA
:1013F00005A09306D002638AD70093060003E39802
:10140000D7FE13872200894721A013872200854732
:10141000830607001306B0026383C6046341D60245
:1014200013063002638BC602BA820145A54681A02D
:10143000138722006DBF138722009147D1BF130687
:10144000D0026389C60013060003E39FC6FC93E73E
:10145000270031A005078547C1BF93E7470005076F
:10146000E1B713162500329506053A9585020386E5
:101470000200130706FD9375F70FE3F4B6FE13079A
:10148000E0029946631EE60085028146A545038673
:101490000200130606FD1377F60F63F5E50236C664
:1014A000038702001306A006630DC70A6343E60222
:1014B0001306C0046307C70A13068006630CC70837
:1014C00081452DA813972600BA968606B296850206
:1014D0007DBF130640076306C7081306A007630213
:1014E000C7081306C0068145631AC70003861200A9
:1014F0008D456314E600850291458502038602004E
:10150000930300061307100663C4C30013071004F7
:101510009303700663C4C30693035006635376189F
:101520009303700463C1C30493055004635BB61650
:1015300013073004E310E6EA18409303440016CA88
:10154000230CE1001EC8A30C01000147BE862A86B9
:101550002C0849A8038612008145E311E6FA8902A6
:1015600071BF8502B1BF93063006E307D6FC63CE98
:10157000C606930680056303D602A9BD930630070D
:101580006304D60463CBC6029306F0066302D60E4C
:101590009306000793E74700E31ED6E29146639F58
:1015A000D50A930384000C40504016CA3AC23EC08C
:1015B0001EC8AA870147C146B9A093065007630811
:1015C000D6069306800745BF1840B7260000930350
:1015D00044009385C68611C3BA85324716CA1EC811
:1015E000BE862A862245413E0DA091466394D502CF
:1015F000930384000C40504016CA3AC23EC01EC835
:10160000AA870547A94622458D33C243AA941E8462
:10161000D242C9B3B2460C4016C836C23AC0110411
:101620002A878546294622451539AA9461B39146F1
:10163000639DD500930384000C40504016CA3AC203
:101640003EC01EC8AA87014775BFB2460C4016C8E7
:1016500036C23AC011042A878146E9B7B24616C895
:101660000C40414636C23AC011042A87814665BF04
:101670009146639ED500930384000C40504016CAE7
:101680003AC23EC01EC8AA870147A146ADBFB246B6
:101690000C4016C836C23AC011042A87814621463A
:1016A00059B70C401306840040403AC22A872245AD
:1016B00032C83EC02286B687A94616CA4D39AA94BA
:1016C0004244B9B71301C1FD2EC832CAAA85100819
:1016D000014506C636CC3ACE3ED032C05939B2406A
:1016E000130141028280411122C426C206C61C2178
:1016F000AA840144DC8183073100050499EFA947DE
:101700009305310005460145DC81EFF09F9D228560
:10171000B240224492444101828005469305310043
:101720000145EFF01F9CB38784009C23DC81E1B767
:1017300053797374656D436C6B3A25640D0A000030
:101740004368697049443A253038780D0A00000032
:1017500053797374656D20426F6F746564212054F2
:101760006F74616C20626F6F74733A2025640D0A88
:101770000000000053657474696E677320736176AE
:10178000656420746F20525443205352414D2E0DF6
:1017900000000000436F6E666967206C6F616465CE
:1017A0006421204D6F64653A2025642C20536574B4
:1017B000506F696E743A2025640D0A0052414D2025
:1017C0006461746120696E76616C6964206F722057
:1017D00062617474657279206C6F772E0D00000061
:1017E0005B256C75206D735D20446174653A203211
:1017F00030253032642D253032642D25303264207E
:101800002054696D653A20253032643A25303264BF
:101810003A253032640D0A00626F6F745F636F7532
:101820006E743A2025640D0A000000002D2D2D2035
:10183000445331333037205352414D2044554D509D
:10184000202D2D2D0D0000002530325820000000E5
:101850002D2D2D2D2D2D2D2D2D2D2D2D2D2D2D2DB8
:101860002D2D2D2D2D2D2D2D0D000000286E756C8C
:041870006C290000DF
:10187400C4090154A5000000010203040506070879
:101884000102030405060708006CDC0202040608D2
:1018940004080C10081018201020304020406080EC
:1018A40001020304050607080102030405060708EC
:00000001FF
